:020000040800F2
:100000002053002029030008174C0008ED3E00088B
:10001000954B00082D0A0008F9590008000000005F
:10002000000000000000000000000000690200085D
:10003000A915000800000000C5020008C55000080E
:100040004303000843030008430300084303000878
:100050004303000843030008AB15000843030008EE
:1000600043030008B1150008B71500084303000852
:10007000B511000843030008C1110008430300083C
:10008000430300084303000843030008790A0008FB
:100090006D0A00084303000843030008BD1500086B
:1000A0009551000843030008430300084303000878
:1000B000B1510008BD510008430300084303000884
:1000C000430300084303000843030008814F00086E
:1000D00043030008DD56000843030008E956000802
:1000E000430300084303000843030008C951000804
:1000F000D5510008430300084303000843030008E8
:1001000043030008430300084303000843030008B7
:1001100043030008430300084303000843030008A7
:1001200043030008CD110008D911000891120008FE
:10013000430300084303000843030008CD0A0008F6
:10014000C10A0008430300084303000843030008F2
:100150009D120008A9120008B5120008D158000825
:100160004303000843030008430300084303000857
:100170004303000843030008430300080000000095
:10018000430300084303000800F002F800F05CF8A5
:100190000AA090E8000C82448344AAF10107DA45E2
:1001A00001D100F051F8AFF2090EBAE80F0013F0D8
:1001B000010F18BFFB1A43F0010318478490000099
:1001C000A49000000A444FF0000C10F8013B13F01B
:1001D000070408BF10F8014B1D1108BF10F8015BA0
:1001E000641E05D010F8016B641E01F8016BF9D193
:1001F00013F0080F1EBF10F8014BAD1C0C1B09D1EA
:100200006D1E58BF01F801CBFAD505E014F8016B5B
:1002100001F8016B6D1EF9D59142D6D370470000ED
:100220000023002400250026103A28BF78C1FBD8FF
:10023000520728BF30C148BF0B6070471FB508F098
:1002400088FD1FBD10B510BD00F002FA1146FFF782
:10025000F5FF07F037F800F020FA03B4FFF7F2FFDC
:1002600003BC00F021FA00002C4B19680868B0E8C4
:10027000F04F80F30988BFF36F8F4FF0000080F3D9
:10028000118870470000000008480068006880F38B
:1002900008884FF0000080F3148862B661B6BFF39F
:1002A0004F8FBFF36F8F00DF00BF00BF08ED00E08E
:1002B000DFF80C00016841F470010160704700BF75
:1002C00088ED00E0EFF30980BFF36F8F134B1A68DE
:1002D0001EF0100F08BF20ED108A20E9F04F1060CB
:1002E00009B44FF0500080F31188BFF34F8FBFF374
:1002F0006F8F07F0D1FD4FF0000080F3118809BC2B
:1003000019680868B0E8F04F1EF0100F08BFB0EC95
:10031000108A80F30988BFF36F8F70472000002098
:10032000EFF30580704700000948804709480047FF
:10033000FEE7FEE7FEE7FEE7FEE7FEE7FEE7FEE795
:10034000FEE7FEE704480549054A064B70470000F2
:100350008551000889010008204D0020205300200D
:10036000204F0020204F002053EA020C00F069804B
:100370002DE9F04B4FF00006002B1FBFB3FA83F5B9
:1003800003FA05F424FA05F65E4012BF1643B2FAEA
:1003900082F502FA05F4C5F120051EBF22FA05FC1C
:1003A00044EA0C04203556EA044C4FEA144418BFC2
:1003B000641C4FF000084FF00009904271EB030CF1
:1003C00039D3002919BFB1FA81F701FA07F6B0FA5B
:1003D00080F700FA07F6C7F120071EBF20FA07FCD6
:1003E00046EA0C062037B6FBF4FCA7EB0507103FE6
:1003F00007F01F0BCBF120060CFA0BFB2CFA06F6CC
:1004000044BFB3460026202FA4BF5E464FF0000B2A
:100410005BEA060C08BF4FF0010B19EB0B09ABFBB5
:10042000027C48EB0608C01B06FB02CC0BFB03CC8E
:1004300071EB0C01C1E70B46024641464846BDE858
:10044000F08B13B54FF000004FF00001AFF30080C8
:10045000BDE81C40704710B5431C02E010F8011BBA
:1004600071B18107FAD14FF0013202C88C1A8C4366
:1004700014EAC211F9D0C01A0A0603D0C01E10BD7A
:10048000C01A10BD0A0401D0801E10BD0902FCD0A4
:10049000401E10BD032A40F2308010F0030C00F023
:1004A000158011F8013BBCF1020F624498BF11F8AE
:1004B00001CB00F8013B38BF11F8013BA2F1040267
:1004C00098BF00F801CB38BF00F8013B11F00303DF
:1004D00000F02580083AC0F0088051F8043B083A43
:1004E00051F804CBA0E80810F5E7121D5CBF51F8E5
:1004F000043B40F8043BAFF30080D20724BF11F85F
:10050000013B11F801CB48BF11F8012B24BF00F8C3
:10051000013B00F801CB48BF00F8012B704710B534
:10052000203AC0F00B80B1E81850203AA0E81850EB
:10053000B1E81850A0E81850BFF4F5AF5FEA027CAC
:1005400024BFB1E81850A0E8185044BF18C918C01B
:10055000BDE810405FEA827C24BF51F8043B40F8BC
:10056000043B08BF7047D20728BF31F8023B48BFA1
:1005700011F8012B28BF20F8023B48BF00F8012BDF
:10058000704702F0FF0343EA032242EA024200F00E
:1005900037B84FF0000200B513469446964620390E
:1005A00022BFA0E80C50A0E80C50B1F12001BFF42C
:1005B000F7AF090728BFA0E80C5048BF0CC05DF892
:1005C00004EB890028BF40F8042B08BF704748BFE0
:1005D00020F8022B11F0804F18BF00F8012B704754
:1005E00070477047704710B500F02AF8006810BDDA
:1005F00010B5044600F024F8046010BD4FF000026E
:100600000429C0F0128010F0030C3FF4C4AFCCF109
:10061000040CBCF1020F18BF00F8012BA8BF20F892
:10062000022BA1EB0C01FFF7B6BF5FEAC17C24BF30
:1006300000F8012B00F8012B48BF00F8012B704790
:1006400000487047BC4C002000487047BC4C00205C
:100650007546FFF7F9FFAE4605006946534620F0A0
:100660000700854618B020B5FFF76CFEBDE82040B6
:100670004FF000064FF000074FF000084FF0000B5E
:1006800021F00701AC46ACE8C009ACE8C009ACE811
:10069000C009ACE8C0098D4670470446AFF300803E
:1006A0002046FFF7DAFD000001491820ABBEFEE747
:1006B0002600020070470000B7EE000A80ED000A35
:1006C0009FED040A80ED010A80ED020A80ED030A25
:1006D000704700000000000001221021014801F0D5
:1006E000C1BE00000000024000221021014801F0BC
:1006F000B9BE000000000240704700000122114610
:10070000014801F0AFBE00000004024000220121B8
:10071000014801F0A7BE00000004024030B5437854
:1007200004781B021BB2234300EE103A194CB8EEBA
:10073000C00AD4ED010A20EE200A81ED000AC37838
:1007400085781B021BB22B4300EE103AD4ED010A50
:10075000B8EEC00A20EE200A81ED010A437904793F
:100760001B021BB2234300EE103AB8EEC00A20EE83
:10077000200ADFED090A81ED020AD0F8060020F018
:100780007F4000EE100AB8EE400A20EE200A82ED0B
:10079000000A30BDC801002000401C42704706F02E
:1007A000D1BD06F07BBB000010B542780378120281
:1007B00012B21A4300EE102A124BB8EEC00AD3ED63
:1007C000020A20EE200A81ED000AC2788478120223
:1007D00012B2224300EE102AD3ED020AB8EEC00A8C
:1007E00020EE200A81ED010A42790079120212B24C
:1007F000024300EE102AB8EEC00A20EE200A81ED76
:10080000020A10BDC801002010B5FFF775FFFFF701
:10081000C5FF06F0AFF808B1802402E006F016F834
:10082000044606F07FFA10B144F0400010BD06F017
:100830000BFA204310BD00002DE9FC4107460020C3
:1008400016460D4600900190FFF74EFF922000F0F3
:10085000BDF806226946122000F09AF8FFF73CFF27
:100860009DF801009DF80010000200B2084300EE60
:10087000100A464CB8EEC00AD4ED010A20EE200A58
:1008800085ED000A9DF803009DF80210000200B2F9
:10089000084300EE100AD4ED010AB8EEC00A20EEBB
:1008A000200A85ED010A9DF805009DF8041000025C
:1008B00000B2084300EE100AB8EEC00A20EE200A8B
:1008C00085ED020AFFF722FF08226946002000F0AA
:1008D0005FF8FFF713FF9DF800000F2830D19DF857
:1008E00003009DF80210000200B2084300EE100A57
:1008F000D4ED020AB8EEC00A20EE200A87ED000A05
:100900009DF805009DF80410000200B2084300EEB7
:10091000100AD4ED020AB8EEC00A20EE200A87EDD4
:10092000010A9DF807009DF80610000200B2084376
:1009300000EE100AB8EEC00A20EE200A87ED020A87
:10094000FFF7D2FEA22000F041F8022269462220E1
:1009500000F01EF8FFF7C0FE9DF800009DF80110A2
:10096000C00040EA5110B0F5806F01DBA0F50060D7
:1009700000EE100AB4EE001AF8EEC00AB3EE070A51
:1009800000EE810A86ED000ABDE8FC81C801002066
:1009900070B514460D4640F0800000F017F806E0F0
:1009A000552000F013F8641E05F8010BE4B2002C8A
:1009B000F6D170BD10B50C4640F0800000F006F88E
:1009C000552000F003F8207010BD000001B582B082
:1009D0004FF47A700090012301AA02A9024802F0A4
:1009E0004BFB9DF804000EBDF40400200278407813
:1009F000D20042EA5010B0F5806F01DBA0F5006034
:100A000000EE100AB4EE001AF8EEC00AB3EE070AC0
:100A100000EE810A81ED000A704710B50C46FFF721
:100A2000D5FF2046BDE81040FFF7D0BFFEE700002D
:100A300000B58BB000200121CDE9060105900090A2
:100A400001900290039004900E20CDE908106946B1
:100A5000054800F0A5FE0221034800F02BFE0248E5
:100A600001F0FEF90BB000BD50040020014800F079
:100A700092BF000050040020014800F08CBF00002D
:100A80005004002000B58BB001220E2100200792F7
:100A9000CDE9051003900490CDE908210090019064
:100AA00002906946054800F07BFE0221034800F0F1
:100AB00001FE024801F0D4F90BB000BD780400201B
:100AC000014800F068BF000078040020014800F0F1
:100AD00062BF00007804002010B5234C2DED028B7E
:100AE000606A08F0C5F841EC100B05F0B1F951EC63
:100AF000100B07F0F5FB08EE100A606A08F0B8F872
:100B000041EC100B05F014FA51EC100B07F0E8FB68
:100B100000EE100AB4F90000B4F9021000EE900AD9
:100B2000F8EEE00A20EE881A00EE901AF8EEE00ADD
:100B300000EEC01AFDEEC10A10EE902A228000EEEF
:100B4000900AF8EEE00A60EE800A00EE101AB8EEA5
:100B5000C00A40EE080ABDEEE00A10EE100A6080FE
:100B6000BDEC028B10BD000088000020F8B51B4CC6
:100B700000254FF4347700BF05EB450004EB8006F9
:100B8000B6F9060000F5B471B94211D900EE100AA9
:100B9000134905EB0510B8EEC00A01EB8000DFED4C
:100BA000110A06F015FCBDEEC00A10EE100A04E0B2
:100BB0000D4900200880488088806D1C7080042DBD
:100BC000DADBB4F926000090B4F91A30B4F90E203B
:100BD000B4F90210002006F0DFFEF8BD5C4C0020E6
:100BE0004C4B0020000000008800002070B5C04C75
:100BF000C0482DED088BB0EE409AF0EE609A94ED6F
:100C0000040A84ED0A0A80699FEDBB0AE06284ED64
:100C10000C0A9FEDBA0ABA49BA4E84ED0D0A04F1E6
:100C20005805884208DDBDEC088B28464FF48051FA
:100C3000BDE8704003F0B0BFB5F90600B6F92A1060
:100C4000401A07F0F6FD41EC100B05F065F9B0EE27
:100C5000401AF0EE601AB5F90400B0EE418AF0EEE9
:100C6000618AB6F91E10401A07F0E3FD41EC100B43
:100C700005F052F9B5F90200B0EE40AAF0EE60AA14
:100C8000B6F91210401A07F0D4FD41EC100B05F034
:100C900043F9B5F90000B0EE40BAF0EE60BAB6F92B
:100CA0000610401A07F0C5FD41EC100B05F034F9B1
:100CB000B0EE401AF0EE601A53EC1B2B51EC110B06
:100CC00007F040FB53EC1A2B07F03CFB53EC182BBE
:100CD00007F038FB41EC100B84ED180B9FED8A1BDD
:100CE00053EC112B07F03AFD36D0B5F90000B6F9F8
:100CF0000610401A07F09DFD94ED188B53EC182B4D
:100D000007F0D4FBC4E90E01B5F90200B6F91210E0
:100D1000401A07F08EFD53EC182B07F0C7FBC4E90F
:100D20001001B5F90400B6F91E10401A07F081FD54
:100D300053EC182B07F0BAFBC4E91201B5F9060011
:100D4000B6F92A10401A07F074FD53EC182B07F07F
:100D5000ADFBC4E9140109E09FED6D0B84ED0E0BB2
:100D600084ED100B84ED120B84ED140B94ED180B35
:100D700053EC192B51EC100B07F098FB07F0B0FA6D
:100D8000F7EE000A2061B0F17E5F02DDC4ED040AD7
:100D900006E010F1814F03D9BFEE000A84ED040A8A
:100DA00094ED0C0A5C4910EE100A0844B0F5201FBF
:100DB00002D29FED5A0A34E010EE100A5849084456
:100DC000B0F5A01F02D2B6EE080A2AE010EE100A13
:100DD00054490844B0F5E01F02D2B6EE000A20E004
:100DE00010EE100A50490844B0F5A00F02D2B5EE3B
:100DF000000A16E010EE100A4C490844B0F5000F46
:100E000002D2B4EE000A0CE010EE100A4749494243
:100E1000884209DAB5EEC00AF1EE10FA04DB9FED64
:100E2000440A84ED050A01E0C4ED050A606905463F
:100E300007F01EFF94ED0D0AD4ED040A41EC190BE6
:100E400020EE208A18EE100A07F012FF94ED0E1B18
:100E500053EC112B07F018FD53EC192B07F014FD80
:100E600007F0B8FC7080284607F002FF41EC190B30
:100E700018EE100A07F0FCFE94ED101B53EC112B3A
:100E800007F002FD53EC192B07F0FEFC07F0A2FC63
:100E9000F081284607F0ECFE41EC190B18EE100A21
:100EA00007F0E6FE94ED121B53EC112B07F0ECFC5F
:100EB00053EC192B07F0E8FC07F08CFC70832846F4
:100EC00007F0D6FE41EC190B18EE100A07F0D0FE21
:100ED00094ED141B53EC112B07F0D6FC53EC192B9B
:100EE00007F0D2FC07F076FCF084BDEC088B70BDF7
:100EF000880000200A4B002000007042006070470C
:100F0000000016445C4C00200000000000000000BF
:100F1000000000000000D03F0000E0BD6666663FB4
:100F20000000F4BD000010BE000060BE0000E0BE86
:100F3000CDCC4C3D2DE9F041274C41F288302DEDD0
:100F4000048BA0802548264A264B018812881B88DE
:100F500041EA020040EA030523480088054306D021
:100F600042F2C6356E42002729B3658027E01F4D47
:100F7000B5F9060007F05DFC9FED1D8B53EC182BB7
:100F800007F094FA9FED1C9B53EC192B07F07CFCA7
:100F900007F020FC6080B5F9040007F04AFC53EC30
:100FA000182B07F083FA53EC192B07F06DFC07F0B0
:100FB00011FC20800AE00AB1668000E067800BB176
:100FC000268003E008B1258000E02780BDEC048B7B
:100FD000BDE8F041FFF780BD88000020A00100209F
:100FE000A2010020A4010020A6010020354B002012
:100FF0000000000000A084400000000000409F406E
:101000002DE9F0413F483F4C2DED048BB0F90450E1
:101010003D48B4F9086005F1320703883B48018870
:101020003B480A461943B0F800E03A4841EA0E014D
:10103000642FB0F800C0B4F90600374C41EA0C0147
:1010400016D800F13207642F12D8322E10DC16F1B8
:10105000320F0DDB69B9314A216A914210DC304A06
:1010600091420DD8BDEC048BBDE8F041FFF77EBD89
:1010700031B142F2C6304142002592B3608035E082
:1010800007F0D7FB9FED278B53EC182B07F00EFAD8
:101090009FED269B53EC192B07F0F6FB07F09AFB0C
:1010A0006080284607F0C5FB53EC182B07F0FEF9CB
:1010B00053EC192B07F0E8FB07F08CFB2080704203
:1010C00007F0B7FB53EC182B07F0F0F953EC192B92
:1010D00007F0DAFB07F07EFBA080BDEC048BBDE8D7
:1010E000F081FFE70BB1618000E06580BEF1000F89
:1010F00001D02180F1E7BCF1000F01D02080ECE7A6
:101100002580EAE7354B0020A2010020A001002045
:10111000A4010020A6010020880000200000A040BB
:101120000000A0C00000000000A0844000000000FB
:101130000040BF402DED028B0024194D9FED198A10
:1011400004EB041005EB8000B0EE480A1649F0EEFF
:10115000400A06F091F9641CE4B2042CF0D3124D5D
:1011600000249FED128B683D41F270762C806C80DC
:10117000AC8000F053FA03F011FE05F05DFE0A4862
:101180003146103803F008FDB0EE480AF0EE680A68
:10119000FFF72CFD05F03EFE012006F0D3F8E5E751
:1011A0004C4B002000607046F00000200000000062
:1011B0000070D740014800F0E1BE000000090020A7
:1011C000014800F0DBBE000060090020014800F08B
:1011D000D5BE0000C009002010B500F007F8BDE83A
:1011E0001040014800F0CABE4C05002070B52348ED
:1011F0000068800240D521494FF0F4600831086052
:101200001F4C207880070CD5207820F00200207039
:10121000207840F00400207001221146194801F0A6
:1012200021F96078184D80070CD5607820F0020015
:101230006070607840F00400607001221021284640
:1012400001F010F9A07880070CD5A07820F00200FA
:10125000A070A07840F00400A07001221021284660
:1012600001F000F905F056FF2078400704D5074843
:10127000016841F00101016070BD0000006402409E
:10128000FC0000200004024000000240103C01402D
:10129000014800F073BE0000AC050020014800F0DA
:1012A0006DBE000040080020014800F067BE00004D
:1012B000200A0020014800F061BE0000A0080020C4
:1012C0002DE9F04F85680024099E802D18D0894DA6
:1012D000C563894D456490F83450012D15D0012522
:1012E00080F8345090F83550012D10D0002180F84E
:1012F00034100224002180F834102046BDE8F08F1D
:101300004FF4807141650120F8E70220F6E70225DD
:1013100080F835500025456505682F6847F480271B
:101320002F6005682B6103685E608368402B03684B
:101330002AD099600168CA60714D704E704FDFF815
:10134000BC81DFF8B891DFF8B8A1DFF8B4B1EA14D6
:10135000DFF8A8E10168183630379302A9F148098F
:101360000AF1600A0BF1180BAEF1300E4FF0006C71
:1013700041452DD9A94205D0494503D0514501D059
:10138000B14205D1202220E09A600268D160D3E703
:1013900059451AD0714518D0594D7835A94214D005
:1013A000564D3035A94210D0B9420BD0534A183AA5
:1013B000914207D0524A9032914203D04F4A48326C
:1013C000914201D11A4600E062464C494C392EE068
:1013D000DFF82C8108F1A80841452AD9A94205D097
:1013E000494503D0514501D0B14201D120221CE032
:1013F00059451AD0714518D0414D7835A94214D0BD
:101400003E4D3035A94210D0B9420BD03B4A183A74
:10141000914207D03A4A9032914203D0374A48323B
:10142000914201D11A4600E06246344950390A60BF
:101430005AE0DFF8CC8008F1480841452AD9A94292
:1014400005D0494503D0514501D0B14201D12022F8
:101450001CE059451AD0714518D0294D7835A9425C
:1014600014D0264D3035A94210D0B9420BD0234AB2
:10147000183A914207D0224A9032914203D01F4A33
:101480004832914201D11A4600E062461C491039A7
:10149000CA6029E0A94205D0494503D0514501D091
:1014A000B14201D120221CE059451AD0714518D013
:1014B000134D7835A94214D0104D3035A94210D0C3
:1014C000B9420BD00D4A183A914207D00C4A9032DB
:1014D000914203D0094A4832914201D11A4600E0B4
:1014E0006246074910398A6001680A6842F00102C1
:1014F0000A60FFE6D16E00081D6F000858640240C4
:101500001060024001681823CAB2103AB2FBF3F22D
:10151000054B6FF30901032A9B5CC36500D9091DC4
:101520008165084670470000BC8D000810B5014673
:1015300000208B698A6A4FF0C07453B1B3F5005F25
:1015400015D072B1012A0CD0022A0AD0032A09D17F
:1015500004E01AB1012A06D0022A03D1C96AC901DE
:1015600000D5012010BDC96AA142FAD010BD002AE1
:10157000F7D0012AF2D0022AF3D0032AF3D010BD0B
:1015800001680A68D20604D5C968C90601D506F003
:1015900051BA704701680A68D20604D5C968C906FD
:1015A00001D506F047BA70477047012000F056BEDB
:1015B000082000F053BE102000F050BE10B52020CF
:1015C00000F04CFEBDE810404FF4007000F046BE45
:1015D00072B6FEE710B558B1084C491E0BD310F88F
:1015E000013B5340DBB234F8133083EA1222F4E7B4
:1015F0004FF6FF7010BD104610BD0000FA8E0008B7
:1016000010B5054C04E000BF10F8013B5340E25C0C
:10161000491EF9D2104610BDFA8D00081E491F4818
:101620001F4A91ED000A80ED020AD1ED010AC0EDDA
:10163000060AD1ED020AC0ED070AD0ED030A30EE2A
:10164000600ABDEEC00A10EE101A09B200EE101AC0
:10165000C180D2ED000AB8EEC00A134A30EEC00ACB
:10166000DFED100A10EE101A80EE201A80ED080A45
:10167000DFED0E0A914280ED091A02D930EE200A00
:1016800006E010EE101A0A4A914203DD30EE600ABD
:1016900080ED080A704700001048002088000020F4
:1016A0008C01002033336542000034C30000B44392
:1016B0000000344390F82020012A07D0022A05D0E8
:1016C000416A41F48021416201207047006842690B
:1016D0000A43426100207047F0B590F8205004683A
:1016E000A468012D05D0022D03D0416A41F4802168
:1016F00053E014F0406F01D1E5004BD5C4F3016411
:10170000022C03D9416A41F4000146E00125A540BD
:101710001D608D684FF4C0739DB1CE6835434E682F
:1017200045EAC605066803EB0417F5514FF4C27588
:10173000076805EB04150E697E51097D012905D066
:1017400009E00E88CD6845EA4655EBE701684E5939
:1017500046F480764E511179D2F805504FF4C67692
:1017600041EA0525016806EB04168D511178D2F87F
:1017700001204FF4C47541EA0221026805EB04150B
:101780005151006803EB0411425842F001024250EB
:101790000020F0BD416A41F4001141620120F0BD1A
:1017A00010B590F82020012A07D0022A05D0416AFE
:1017B00041F480214162012010BD3B48D0F8002255
:1017C00042F00102C0F80022D0F8002222F47C523C
:1017D000C0F80022D0F800224B6A42EA0322C0F887
:1017E00000220A7D02F01F0301229A40D0F81C3229
:1017F0009343C0F81C32CB69B3B9D0F80C32934391
:10180000C0F80C328C894B6864F31F434C6900EBC1
:10181000C404C4F840320C890B6864F31F434C695C
:1018200000EBC404C4F84432CB69012B16D1D0F8C4
:101830000C321343C0F80C320C884B6864F31F431E
:101840004C6900EBC404C4F840320C89CB6864F3E3
:101850001F434C6900EBC404C4F844328B69002B6D
:10186000D0F804320ED01343C0F804320B69002BB9
:10187000D0F8143208D01343C0F81432096A012991
:1018800004D008E09343EFE79343F5E7D0F81C1248
:101890001143C0F81C12D0F8001221F00101C0F869
:1018A0000012002010BD000000640040704730B5F9
:1018B00090F82040012C05D0022C03D0416A41F45D
:1018C00080215DE00468002955D02469A40754D024
:1018D0004FF4D874056804EB01142D5915F0040574
:1018E000956005682D594ED0ED08556005682C5956
:1018F00004F00204D4604FF4DA74056804EB0114B8
:101900002D5905F00F05156105682D59C5F30725FB
:10191000956105682C59240C54614FF4DC720468FD
:1019200002EB0112A4581C700468A458240A5C70CD
:101930000468A458240C9C700468A258120EDA7033
:101940004FF4DE72046802EB0112A4581C710468A3
:10195000A458240A5C710468A458240C9C7104687F
:10196000A258120EDA71006881B1016941F02001BC
:101970000161002030BDE468A8E7416A41F400112C
:101980004162012030BD6D0D1560AFE7C16841F0C7
:101990002001C160EDE72DE9F05F054600680024F5
:1019A0004669D0F804908768D0F80CB0D0F810A041
:1019B000D0F81880F10748D0F90714D001218160D0
:1019C000B80703D5284600F078FA0CE0780702D56E
:1019D0004FF4006407E0380702D54FF4805402E06A
:1019E000284600F069FAF80516D529684FF480708A
:1019F0008860B80503D5284600F061FA0CE0780548
:101A000002D544F4005407E0380502D544F480447C
:101A100002E0284600F052FAF80316D529684FF480
:101A200080308860B80303D5284600F04AFA0CE0FD
:101A3000780302D544F4004407E0380302D544F4A7
:101A4000803402E0284600F03BFA300707D55FEA11
:101A5000CB6004D52968102044F40074C860700776
:101A60004FF0080707D55FEA0B7004D52868C760F8
:101A7000284600F0A9F9B00706D52868C068800795
:101A800002D0284600F0A2F9700607D55FEACA60C6
:101A900004D52968102044F480640861B00607D595
:101AA0005FEA0A7004D528680761284600F0D4F977
:101AB000F00606D528680069800702D0284600F0A5
:101AC000CCF9B00308D55FEAC96005D529681020B4
:101AD0004860284600F0C2F9F00307D55FEA0970B4
:101AE00004D528684760284600F0ECF9300446D554
:101AF0005FEA497040D5F00504D55FEAC87001D0AF
:101B000044F00104B00504D55FEA887001D544F0C3
:101B10000204700504D55FEA487001D544F004045E
:101B2000300529D518F0700F26D008F07000402835
:101B300015D006DC102809D020280AD0302816D16C
:101B40000AE050280ED0602811D10EE044F00804BD
:101B50000DE044F010040AE044F0200407E044F0F3
:101B6000400404E044F0800401E044F480742868F8
:101B7000816921F070018161296804204860002C8E
:101B800005D0686A204368622846FFF78FFEBDE8EB
:101B9000F09F70B5040003D094F8200010B104E069
:101BA000012070BD204600F081F82068016841F0F6
:101BB0000101016000F05CFC0546052604E000F030
:101BC00057FC401B0A2811D820684068C007F6D08F
:101BD0002068016821F00201016000F049FC05461F
:101BE0000BE000F045FC401B0A2806D9606A40F46F
:101BF0000030606284F82060D2E720684068800787
:101C0000EFD4207E0128206801683DD021F08001BA
:101C10000160607E01282068016838D021F0400111
:101C20000160A07E01282068016833D021F02001E6
:101C30000160E07E0128206801682ED041F010018B
:101C40000160207F01282068016829D021F0080167
:101C50000160607F01282068016824D021F0040120
:101C60000160D4E902010843D4E904121143084396
:101C70006168491E08432168C86100206062012034
:101C800084F82000002070BD41F08001C0E741F0E1
:101C90004001C5E741F02001CAE721F01001CFE77C
:101CA00041F00801D4E741F00401D9E7F0B587B06D
:101CB000044614216846FEF76CFC3E4B3E48DFF8B4
:101CC000F0E01968D4F800C03B4A03250226092732
:101CD00010300024491CF4452AD11960012907D18C
:101CE000016841F000710160006800F0007005902B
:101CF000106840F0080010601068CDE9005600F050
:101D00000800CDE9047069462C48CDE9024500F091
:101D1000B1FA00220521132000F056FD132000F037
:101D200045FD00220521142000F04EFD14203AE06C
:101D3000DFF88CE0F44538D1D0F800C04CF0806C6E
:101D4000C0F800C0D0F800C001290CF0806CCDF8BC
:101D500014C0196007D1016841F00071016000688A
:101D600000F000700590106840F0020010601068EC
:101D700002AB00F0020005906020CDE9000683E888
:101D8000B00069460F4800F075FA002205213F2097
:101D900000F01AFD3F2000F009FD0022052140203F
:101DA00000F012FD402000F001FD07B0F0BD000082
:101DB000006400400C00002030380240000C02405B
:101DC00000680040000402407047000010B504465F
:101DD00000681D498AB0884210D107AB6A460021CD
:101DE0002046FFF764FD0098552807D19DF81C0098
:101DF000082803D11548DDF81D100160144920683A
:101E000088421FD107AB6A4600212046FFF74FFDED
:101E10000098A0F20120072814D2C0B200EB4002C3
:101E20000C48BDF81C1000EB820049BA8180BDF857
:101E30001E1049BAC180BDF8201049BA01819DF831
:101E4000221081720AB010BD006400408C01002095
:101E5000006800405C4C00207047704770470000ED
:101E600070B5044690F82000012804D0606A40F460
:101E70000020606218E0022084F8200020680168D9
:101E800021F00101016000F0F3FA05460EE000BF09
:101E900000F0EEFA401B0A2808D9606A40F40030CE
:101EA0006062052084F82000012070BD2068406831
:101EB000C007EDD1606270BD7047704770477047D2
:101EC0007047704770472DE9F0410446876D00F078
:101ED000CFFA064694F835000025022806D0802067
:101EE000606584F834500120BDE8F0812068016805
:101EF00021F0160101602068416921F080014161F3
:101F0000206C08B9A06C20B12068016821F008019C
:101F100001602068016821F0010101600CE000F01F
:101F2000A7FA801B052807D920206065032084F8C4
:101F3000350084F83450D7E720680068C007EED138
:101F400094F85C103F208840B860012084F8350088
:101F500084F834500020C7E790F83510022903D0E8
:101F60008021416501207047052180F83510006807
:101F7000016821F001010160002070472DE9F8435C
:101F800004464FF00009CDF8009063484FF4165115
:101F9000A56D0068B0FBF1F72E6894F85C1008207E
:101FA00000FA01F131420FD021680A6852070BD5BF
:101FB0000A6822F004020A6094F85C108840A86065
:101FC000606D40F00100606594F85C104FF001080E
:101FD00008FA01F0304208D021684969090604D5A1
:101FE000A860606D40F00200606594F85C10042009
:101FF0008840304208D021680968890704D5A86064
:10200000606D40F00400606594F85C10102088401A
:10201000304218D021680968090714D5A8602068E3
:102020000168490304D50068000308D5A16C07E0E6
:102030000168C90503D4016821F008010160216C21
:1020400009B12046884794F85C102020884030422F
:1020500031D021680968C9062DD5A86094F83500EB
:1020600005282068016806D0490347D500680003A9
:102070001DD4616C1CE021F01601016020684169EB
:1020800021F080014161206C08B9A06C20B120686A
:10209000016821F00801016094F85C103F2088403D
:1020A000A86084F8358084F83490216D1FE0E16BDE
:1020B00009B120468847606D00282BD0606DC007AD
:1020C00014D0052084F835002068016821F0010152
:1020D00001600098401C0090B84203D82068006856
:1020E000C007F6D184F8358084F83490E16C00297B
:1020F00010D001B02046BDE8F04308470168C9058B
:10210000D5D4016821F01001016084F8358084F88D
:102110003490CCE7BDE8F8831C0000202DE9F041A5
:10212000044600F0A5F906465CB1022084F83500AB
:10213000002584F834502068016821F00101016015
:102140000DE00120BDE8F08100F092F9801B052828
:1021500005D920206065032084F83500F2E7206867
:102160000068C007F0D12268116820480140D4E916
:1021700001031843D4E90336334318436369184312
:10218000A3691843E3691843236A18430843616A43
:10219000042903D1D4E90B131943084310602068C4
:1021A0004069666A20F0070130460E430127042883
:1021B0000CD1A06A0643E06A40B12046FFF7B6F9A9
:1021C00020B14020606584F83570BAE72068466128
:1021D0002046FFF797F994F85C203F2191408160F9
:1021E000656584F835700020ACE700003F8010F092
:1021F00010B5184C102818D020281FD0012813D152
:1022000005F08CFF01280FD004F12001606A05F071
:10221000ABFD206A002807D00F494FF080500860BE
:10222000BFF34F8FBFF36F8F10BD607840F0010098
:102230006070A07840F00100A07003E0207840F0CA
:1022400001002070E0780028EED0BDE8104004F0D6
:1022500061BF0000FC00002004ED00E0044910B55F
:102260000A68024202D00860FFF7C2FF10BD0000FA
:10227000143C01402DE9F84FDFF8BCA100220125F4
:1022800003264FF00F090AF1040BAAF1040E00BF58
:102290000B6805FA02F42340A34270D10F7907F0CE
:1022A0000307012F01D0022F16D187684FEA420899
:1022B00006FA08FC27EA0C07D1F80CC00CFA08FC57
:1022C0004CEA070CC0F808C04768A7430C79C4F370
:1022D000001494403C4344600C79E443A4070AD0C2
:1022E000C4684FEA420C06FA0CF7BC438F6807FA41
:1022F0000CF72743C7600C7904F00304022C12D1B9
:10230000D40800EB840CDCF820405707FF0E09FAD4
:1023100007F824EA0804D1F8108008FA07F848EA18
:102320000408CCF8208004684FEA420C06FA0CF747
:10233000BC430F7907F0030707FA0CF72743076040
:102340004C6814F4403F70D03C4C276847F48047F9
:102350002760246822F0030704F480440094384C7A
:1023600007EB040CDCF8084897074FEA177809FADE
:1023700008F7BC43334FB84202D1002724E054E0B1
:10238000314FB84201D101271EE0304FB84201D190
:10239000022719E02E4FB84201D1032714E02D4F38
:1023A000B84201D104270FE02B4FB84201D10527D5
:1023B0000AE02A4FB84201D1062705E0284FB8426B
:1023C00001D1072700E0082707FA08F72743CCF8D0
:1023D0000878DAF800405746D1F804C09C435FEA19
:1023E000CC2C00D51C433C60DBF800405F46D1F8A4
:1023F00004C09C435FEA8C2C00D51C433C60DEF893
:1024000000407746D1F804C09C435FEA8C3C00D57D
:102410001C433C60084F083F3C68D1F804C09C4313
:102420005FEACC3C00D51C433C60521C102AFFF4F0
:102430002FAFBDE8F88F0000083C0140443802404F
:102440000030014000000240000402400008024049
:10245000000C02400010024000140240001802402C
:10246000001C02400AB1816170470904FBE70000CB
:1024700001488068704700001000002070B504001B
:1024800025D094F83D00002520B984F83C50204622
:1024900000F0B8F8242084F83D002068016821F09D
:1024A000010101602068016841F400410160206879
:1024B000016821F40041016000F072FA4D4A616840
:1024C000914201D84C4900E04C49884201D2012098
:1024D00070BD4B492368B0FBF1F15E6826F03F0602
:1024E0000E435E606368934206D94FF49673594376
:1024F0004FF47A73B1FBF3F12368491C1E6A26F08E
:102500003F06314319626168914210D84900401E6C
:10251000B0FBF1F2521CC2F30B02042A01D20420D8
:1025200022E0B0FBF1F0401CC0F30B001CE0A268FD
:10253000F2B301EBC10303EB0116431EB3FBF6F349
:102540005B1C43F480431B0549D092B301EBC102ED
:1025500002EB0111401EB0FBF1F0401CC0F30B0078
:1025600040F4804040F400402168CA694CF6FF7393
:102570009A431043C861D4E90710014320680268F8
:1025800022F0C00211430160D4E903010143206835
:10259000826848F2FF339A4311438160D4E9050110
:1025A00008432168CA6822F0FF021043C86001E0B6
:1025B0000EE016E02068016841F001010160256429
:1025C000202084F83D00256384F83E50002070BD33
:1025D00001EB4106431EB3FBF6F35B1CB3E701209E
:1025E000C2E701EB4101401EB0FBF1F0401CC0F31B
:1025F0000B00B7E7A086010080841E0000093D00A3
:1026000040420F00F0B587B0044614216846FDF73C
:10261000C0FF1D492068884233D11C48002401684E
:1026200041F004010160016801F0040105910168B5
:1026300041F0010101600068122500F001000590E1
:102640004FF40070CDE9000502AA0326042782E8B2
:10265000D00069460E48FFF70DFEB801CDE9000530
:1026600002AA694682E8D0000A48FFF703FE07483D
:102670001030016841F400010160006800F40000BE
:10268000059007B0F0BD0000005C0040303802400B
:1026900000080240000002400248816802781144AC
:1026A00081607047100000200B4810B5016841F4AC
:1026B00000710160016841F480610160016841F4CA
:1026C00080710160032000F09FF80F2000F006F8F1
:1026D00000F050F8002010BD003C024030B5054627
:1026E0001F4887B00024016841F0020101600068C2
:1026F00006A900F00200009001A800F031F904984A
:10270000A8B100F04DF940001649174AB0FBF1F1AD
:102710001648491E026040F2E732C0E90324C0E9CE
:102720000114846100F0E4FD040003D015E000F022
:1027300037F9E9E70D4800F071FE04000DD11D20C6
:1027400000F034F8102D07D2002229461D2000F099
:102750003BF80748056000E0012407B0204630BD83
:102760004038024040420F0000040040800A002030
:10277000140000200C4882B0016841F480410160DF
:10278000006800F4804000900748001F016841F095
:10279000805101600068002200F0805000900F21FD
:1027A000901E02B000F010B844380240002809DB47
:1027B00000F01F02012191404009800000F1E0205B
:1027C000C0F8001170470000F0B40E4B1B680C46B7
:1027D000C3F30223C3F10705042D00D90425191DF5
:1027E000072901D2002300E0DB1E012606FA05F1CD
:1027F000491E214099409E40761E16403143F0BC50
:1028000003F058B90CED00E0064900F00702086833
:102810004FF6FF03184040EA0220034A10430860C5
:10282000704700000CED00E00000FA052DE9F047CC
:102830000E46050065D0DFF81481D8F80000F7B225
:1028400000F00700B04207D288F80070D8F8000006
:1028500000F00700B04254D128683D4C810712D5E2
:10286000400703D5206840F4E05020602878000736
:1028700003D5206840F4604020602068A96820F0FB
:10288000F000084320602878C0072DD030496868E0
:102890000839012812D0022813D0032811D0096862
:1028A000890700292DDA216821F003010143216005
:1028B000FFF7DEFD814641F2883A0EE009688903A0
:1028C000EFE709688901ECE7FFF7D2FDA0EB09010A
:1028D000514502D90320BDE8F0872068696800F0FF
:1028E0000C00B0EB810FEFD1D8F80010404601F09A
:1028F0000701B14207D90770006800F00700B04235
:1029000001D00120E7E72878400705D52068E9686D
:1029100020F4E050084320602878000706D520689E
:10292000296920F4604040EAC100206000F058F8B6
:102930002168084AC1F30311515CC8400649086088
:1029400006480068FFF7CAFE0020C4E7003C0240CA
:1029500008380240C48D00081C000020140000202C
:102960000F2202600C4A136803F0030343601368EC
:1029700003F0F0038360136803F4E053C36012684C
:102980004FF4E05303EAD20202610448006800F009
:10299000070008607047000008380240003C024011
:1029A0000448054900680968044AC1F38221515C62
:1029B000C84070471C00002008380240D48D000831
:1029C0000448054900680968044AC1F34231515C72
:1029D000C84070471C00002008380240D48D000811
:1029E000154810B5006810F00C02144813D01449B3
:1029F000042A0FD0082A0ED10F4C241F2268236806
:102A000002F03F025B0207D52068C0F38810A0FBEC
:102A1000010106E0084610BD2168C1F38811A1FB41
:102A200000010023FDF7A0FC2168C1F30141491C0E
:102A30004900B0FBF1F010BD083802400024F4005A
:102A4000001BB7002DE9F84F04006ED02078DFF8A6
:102A50004C93C007A9F104054AD009F104000168AC
:102A6000C1F38101012908D00068C0F38100022868
:102A70000AD1D9F80000400206D52868800337D56E
:102A800060680028E1D033E06068B0F5803F10D086
:102A9000B0F5A02F286810D020F480302860286876
:102AA00020F4802028606068A8B1FFF7E1FC0646AA
:102AB0000DE0286840F48030F4E740F4802028607E
:102AC000F7E700BFFFF7D4FC801B642873D82868A1
:102AD0008003F7D50CE0FFF7CBFC064605E000BF0E
:102AE000FFF7C6FC801B6428F0D828688003F7D461
:102AF0002078DFF8AC8280074FF0000A3ED5A74867
:102B0000001D016811F00C0F08D00068C0F38100AF
:102B100002280BD1D9F80000400207D428688007AA
:102B200016D5E068012800D112E033E1E068B8B1C1
:102B30000120C8F80000FFF79BFC064605E000BF37
:102B4000FFF796FC801B0228C0D828688007F7D5BD
:102B50002868216920F0F80040EAC10028600DE0F3
:102B6000C8F800A0FFF784FC064604E0FFF780FCED
:102B7000801B02281FD828688007F7D42078000718
:102B800022D5864F87486169703771B10121016094
:102B9000FFF76EFC064604E0FFF76AFC801B022884
:102BA00009D838688007F7D50EE0C0F800A0FFF715
:102BB0005FFC064605E082E0FFF75AFC801B022816
:102BC0007DD838688007F7D42078400768D5DFF8CB
:102BD000CCB100270BF13C0BDBF80000C0000BD49C
:102BE000DBF8001041F08051CBF80010DBF800005A
:102BF000012700F0805000906B4E3068C00510D463
:102C0000306840F480703060FFF732FC009005E0DF
:102C1000FFF72EFC0099401A022850D83068C005F2
:102C2000F6D55E4EA0686C3601280FD005283068B6
:102C300010D020F001003060306820F004003060D7
:102C4000A068B8B1FFF714FC00900FE0306840F0C6
:102C50000100F4E740F004003060F7E7FFF708FCFC
:102C60000099411A41F28830814266D83068800765
:102C7000F4D50EE0FFF7FCFB009007E0FFF7F8FB50
:102C80000099411A41F28830814256D83068800755
:102C9000F4D42FB1DBF8001021F08051CBF80010F4
:102CA000A069C8B33D49091D0968C1F38101022922
:102CB0004AD00228504607D0C8F8600000E03CE047
:102CC000FFF7D6FB04463BE04746C8F86000FFF735
:102CD000CFFB064605E000BFFFF7CAFB801B0228BA
:102CE0002BD828688001F7D4D4E907010843A16AEA
:102CF0002E4A490802EB0141626A41EA8211084307
:102D000094F82C1040EA0161C9F8001001203866DF
:102D1000FFF7AEFB044606E03EE000BFFFF7A8FB6E
:102D2000001B022809D828688001F7D534E000BFCD
:102D3000FFF79EFB001B022802D90320BDE8F88F95
:102D400028688001F4D427E00128F7D0D9F80000E2
:102D5000E26900F4800191421CD1226A00F03F0137
:102D6000914217D147F6C071626A0140B1EB821FF0
:102D700010D1A26A4FF0FF3300F4403103EB52024E
:102D8000B1EB024F06D194F82C1000F07060B0EB5C
:102D9000016F01D00120D1E70020CFE704380240C5
:102DA00000004742800E4742007000400000FFFFD5
:102DB0007047000038B5016804464A688868C04317
:102DC000430606D5C30704D1D3435B0601D4216C67
:102DD00005E0830708D4D3431B0605D4616C01B01A
:102DE0002046BDE830400847830603D5430601D599
:102DF000C30551D4D3439B064ED443060AD494F85A
:102E00005130032B49D0636D43F004036365CB68F5
:102E10008B680093830609D4636D43F001036365F7
:102E20008B6800930B6823F040030B60C00506D449
:102E3000606D40F008006065206880680090606DFB
:102E4000002829D02068416821F0E001416001207C
:102E500084F85100900701D4D00722D0206841683F
:102E600021F003014160114DE06C40B10565E06C5B
:102E7000FFF772F818B1606D40F040006065A06C1B
:102E8000002809D00565A06CFFF766F8002803D07C
:102E9000606D40F04000606538BDC868886800908B
:102EA00038BD2046FFF784FF38BD00008D4F000875
:102EB00070B5040009D0606A002540B125616561E4
:102EC000A56294F8510040B10CE0012070BD60682B
:102ED000B0F5827FF4D0E561F2E784F850502046E7
:102EE00000F044F8022084F851002068016821F0C5
:102EF00040010160A088218900F4827001F404413E
:102F00000843A18901F400610843217C01F002011A
:102F10000843217D01F001010843218B01F4007178
:102F20000843217F01F03801084394F8201001F094
:102F300080010843218D01F4005108432168086095
:102F4000A069042101EA104094F8241001F0100156
:102F50000843216848602068C16921F40061C161AB
:102F60006565012084F85100002070BD2DE9F04313
:102F700087B0064614216846FDF70BFB38493068D8
:102F8000884269D137480025016841F480510160C9
:102F9000006800F48050059032481438016841F010
:102FA00002010160016801F002010591016841F030
:102FB000010101600068022400F001000590182062
:102FC00001274FF003084FF005098DE8910369468A
:102FD0002548FFF74FF980208DE891036946234883
:102FE000FFF748F9234C22484FF0C0672060C4E93E
:102FF00001754FF48068C4E9035865617812A561D2
:10300000C4E9075020466562FFF788F808B1FEF76B
:10301000DFFAF464A663174C154860341830E4E80E
:1030200002074020A4E82101C00244F81459A56118
:10303000C4E907500F4865626030FFF76FF808B1C8
:10304000FEF7C6FAB464002205212320A663FFF729
:10305000BBFB2320FFF7AAFB07B0BDE8F08300000D
:1030600000300140443802400004024000000240A9
:10307000406402404C0500202DE9F84F044690F8CA
:10308000500000270A9E1D4692468B464FF00109CC
:1030900001280ED0012084F85000FFF7E9F980469E
:1030A00094F85100616801280CD0B1F5827F07D1F6
:1030B00002E00220BDE8F88FA16809B9042801D018
:1030C0000227C2E0BBF1000F27D0BAF1000F24D0D5
:1030D0001DB394F85100042802D0052084F8510053
:1030E00000206065C4F838A0E587A587C4F830B033
:1030F000E586A5862064606420680168490603D4DB
:10310000016841F040010160E068B0F5006F60685F
:1031100005D0E8B3012D46D07FE0012795E008B146
:10312000012D39D1206B21680088C860206B801C7C
:103130002063E08E401EE0862EE0206881688907CB
:103140000FD5E18E69B1B9F1010F0AD1216B098860
:10315000C160206B801C2063E08E401EE0864FF033
:10316000000920688168C9070CD0E18F51B1C0689F
:10317000A16B0880A06B801CA063E08F401EE087DD
:103180004FF00109FFF774F9A0EB0800B04200E02E
:1031900009E001D3701C50D1E08E0028CDD1E08F22
:1031A0000028CAD13FE0206B216800780873206BAB
:1031B000401C2063E08E401EE0862EE0206881687F
:1031C00089070FD5E18E69B1B9F1010F0AD1216BE1
:1031D00009780173206B401C2063E08E401EE0865E
:1031E0004FF0000920688168C9070CD0E18F51B108
:1031F000C068A16B0870A06B401CA063E08F401EEC
:10320000E0874FF00109FFF733F9A0EB0800B04267
:1032100002D3701C01D010E07EB1E08E0028CDD129
:10322000E08F0028CAD142463146204601F0B6FE62
:1032300028B101272020606507E0032705E0A0688A
:1032400018B92068C16880680090012084F8510096
:10325000002084F8500038462CE770477047000083
:1032600070B590F83C20012A32D0012480F83C400F
:10327000022280F83D2003685A689D6822F070069B
:103280000A6832435A60134B02689A4214D0B2F172
:10329000804F11D0104B9A420ED0104B9A420BD057
:1032A0000F4B9A4208D00F4B9A4205D00E4B9A42D0
:1032B00002D00E4B9A4204D1496825F0800319438D
:1032C000916080F83D40002180F83C10084670BDB8
:1032D000022070BD000001400004004000080040D2
:1032E000000C004000040140004001400018004074
:1032F00010B5040003D094F83D0010B107E00120A0
:1033000010BD002084F83C00204600F01FF8022089
:1033100084F83D00211D206801F062FF012084F83F
:10332000460084F83E0084F83F0084F8400084F8AA
:10333000410084F8420084F8430084F8440084F893
:10334000450084F83D00002010BD000008B52E4A5D
:1033500001682E48914207D1016841F001010160E6
:10336000006800F0010037E0B1F1804F19D0284A21
:10337000914227D1016841F00201016000680022FA
:1033800000F00200009005212B20FFF71DFA2B20F2
:10339000FFF70CFA002205212C20FFF715FA2C204C
:1033A00021E01A48001F016841F001010160006836
:1033B000002200F00100009005211C20FFF704FA14
:1033C0001C2010E0134A914211D1016841F4803170
:1033D0000160006800F48030009000220521182070
:1033E000FFF7F2F91820BDE80840FFF7DFB90A4AF5
:1033F000914207D1016841F400310160006800F496
:103400000030009008BD0000000001404438024038
:1034100000040140004001400044014090F83D108C
:10342000012901D001207047022180F83D10016878
:10343000CA6842F00102CA6000681149884214D08B
:10344000B0F1804F11D00F4988420ED00E4988420A
:103450000BD00E49884208D00D49884205D00D494D
:10346000884202D00C49884204D1816801F00701EA
:10347000062903D0016841F0010101600020704776
:10348000000001400004004000080040000C004023
:1034900000040140004001400018004070B504469F
:1034A00090F83C000025012817D0012684F83C60E4
:1034B000022084F83D002068826822F0770222F41E
:1034C0007F4282600868502838D00DDC20284FD019
:1034D00005DC90B3102811D14AE0022070BD3028DD
:1034E00046D040280AD13BE060282FD070280DD06C
:1034F000B0F5805F03D0B0F5005F12D0012584F8ED
:103500003D60002084F83C00284670BDCB68D1E9BE
:103510000121206801F0D5FE2068816841F0770123
:1035200009E0CB68D1E90121206801F0CAFE2068DA
:10353000816841F480418160E1E719E0CA68496827
:10354000206801F093FF5021206806E0CA684968AE
:10355000206801F09CFF6021206801F0BCFECEE7EE
:10356000CA684968206801F081FF40212068F4E7BB
:10357000226801461046F0E7704770B504460068BF
:1035800001694FF00005C943890715D4C168C943D3
:10359000890711D4E91E0161012020772068806924
:1035A0008007204602D0FFF7E7FF04E000F0C2F8F2
:1035B000204600F054F9257720680169C94349077E
:1035C00017D4C168C943490713D46FF004010161DE
:1035D000022020772068806910F4407F204602D0C6
:1035E000FFF7CAFF04E000F0A5F8204600F037F925
:1035F000257720680169C943090716D4C168C94302
:10360000090712D46FF008010161042020772068B7
:10361000C0698007204602D0FFF7AEFF04E000F04B
:1036200089F8204600F01BF9257720680169C94315
:10363000C90617D4C168C943C90613D46FF0100175
:103640000161082020772068C06910F4407F20467F
:1036500002D0FFF791FF04E000F06CF8204600F084
:10366000FEF8257720680169C943C90708D1C168F8
:10367000C943C90704D1891E0161204600F054F9ED
:1036800020680169C943090609D4C168C94309060C
:1036900005D46FF0800101612046FFF7DEFD206850
:1036A0000169C943490609D4C168C943490605D41B
:1036B0006FF040010161204600F040F92068016987
:1036C000C94389060BD4C168C943890607D46FF082
:1036D000200101612046BDE87040FFF7BFBD70BD0D
:1036E00010B586B0044614216846FCF752FF0E4917
:1036F0002068884215D10D48016841F02001016021
:103700000068012100F02000059040200090022078
:10371000CDE9010103900320049069460448FEF7B7
:10372000A9FD06B010BD0000004401403038024041
:1037300000140240704770B5044690F83C00002623
:103740000D4601280FD0012084F83C006AB1042AFC
:103750001DD0082A2FD00C2A3FD00126002084F843
:103760003C00304670BD022070BD206801F0BCFDF9
:103770002068816941F0080181612068816921F038
:1037800004018161206881692A69114311E0206880
:1037900001F0DAFD2068816941F4006181612068EF
:1037A000816921F480618161206881692A6941EA27
:1037B00002218161D2E7206801F0FCFD2068C16927
:1037C00041F00801C1612068C16921F00401C161B3
:1037D0002068C1692A69114311E0206801F01EFECA
:1037E0002068C16941F40061C1612068C16921F4A8
:1037F0008061C1612068C1692A6941EA0221C16111
:10380000ACE710B5040003D094F83D0010B107E018
:10381000012010BD002084F83C00204600F01EF876
:10382000022084F83D00211D206801F0D9FC012010
:1038300084F8460084F83E0084F83F0084F8400095
:1038400084F8410084F8420084F8430084F844007E
:1038500084F8450084F83D00002010BD7047704793
:1038600010B50446022249B104290ED0082913D00C
:1038700094F84100012816D0012010BD94F83E00B4
:103880000128F9D184F83E200FE094F83F00012888
:10389000F2D184F83F2008E094F840000128EBD1F1
:1038A00084F8402001E084F841200122206801F0E2
:1038B000FBFC16492068164A884201D0904203D189
:1038C000436C43F4004343642068884213D0B0F152
:1038D000804F10D00F4988420DD00F4988420AD03E
:1038E0000E49884207D0904205D00D49884202D047
:1038F0000C49884204D1816801F00701062903D0F0
:10390000016841F001010160002010BD000001408C
:10391000000401400004004000080040000C00408A
:10392000004001400018004000680349884201D16E
:10393000FEF7B2BE704700000004004070477047B9
:1039400070470000F8B5016804460868CA684B690A
:1039500010F00F0F4FF000055AD003F0010602F4EB
:103960009077374365D0C10705D0D10503D5216CC9
:1039700041F001012164410705D5D90703D0216C2D
:1039800041F002012164810705D5D90703D0216CDC
:1039900041F004012164010707D502F02001314301
:1039A00003D0216C41F008012164216C00293BD037
:1039B000800604D5900602D5204601F0A9FD2068B6
:1039C0004069216CC0F3801001F0080101432046DA
:1039D0002BD001F076FD20684069400621D5206893
:1039E000143050E8001F21F0400140E80012002A86
:1039F000F5D1A06BA8B16C490165A06BFEF7ACFADC
:103A0000002811D0A06B016D01B0BDE8F04008475F
:103A100083060ED593060CD52046BDE8F84001F08C
:103A200077BD2046FFF78CFFF8BDFFF789FF2564BF
:103A3000F8BD266B2023012E79D1C60677D5D60690
:103A400075D50868486800904869400640D5A16B64
:103A5000086840680004000CEAD0A28D8242E7D9D1
:103A6000E085C869B0F5807F2DD020680C3050E823
:103A7000001F21F4807140E80012002AF5D120686F
:103A8000143050E8001F21F0010140E80012002A24
:103A9000F5D12068143050E8001F21F0400140E8C3
:103AA0000012002AF5D184F83E30256320680C30DE
:103AB00050E8001F21F0100140E80012002AF5D163
:103AC000A06BFEF700FAA08DE18D401A81B229E0CB
:103AD000A08DE18D401A81B2E08D0028A8D0002988
:103AE000A6D020680C3050E8002F22F4907240E8F5
:103AF0000026002EF5D12068143050E8002F22F067
:103B0000010240E80026002EF5D184F83E302563FE
:103B100020680C3050E8002F22F0100240E800230B
:103B2000002BF5D12046FFF70AFFF8BDFFE7050699
:103B30002BD5150629D594F83D002128F5D1A0688C
:103B4000B0F5805F01D12069B0B1206A411C2162CB
:103B5000216800784860E08C401E0004000CE0847E
:103B6000E3D12068C16821F08001C1602068C1688C
:103B700041F04001C160D8E7206A0088C0F3080026
:103B80004860206A801C2062E5E74006CDD55006DB
:103B9000CBD5CA68204622F04002CA6084F83D3086
:103BA00000F0A3F9C1E70000B354000870B50400A9
:103BB00004D094F83D00002510B106E0012070BD4E
:103BC00084F83C50204600F023F8242084F83D007F
:103BD0002068C16821F40051C160204601F0F8FC62
:103BE0002068016921F4904101612068416921F058
:103BF0002A0141612068C16841F40051C160256417
:103C0000202084F83D0084F83E00002070BD0000B4
:103C10002DE9F04F87B0044614216846FCF7B9FC43
:103C2000A648DFF8948214380322D4F800C0A34BCE
:103C300002211704002506154FF0070E4FF040092A
:103C4000C4456FD1D3F800C04CF0100CC3F800C0CD
:103C50001B6803F010030593036843F0020303603D
:103C6000036803F002030593036843F00103036054
:103C700000688A4600F0010005908020CDE9000A26
:103C8000CDE902529346F0466946CDF810E08C48E3
:103C9000FEF7F0FA7010CDE9000ACDE9025B694643
:103CA000CDF810808748FEF7E5FADFF820B28649A4
:103CB00058464FF0006802C00915E0E802858E10F2
:103CC000E0E80351BA4640F8045C80E860045846D6
:103CD000CBF82450FEF722FA08B1FDF779FC7B4FB0
:103CE0007948C4F838B060373030CBF8384087E8CE
:103CF00001030015C7E9035007F118007D6180E852
:103D0000600438467D62FEF709FA08B1FDF760FCF1
:103D10006763002205212520BC63FEF755FD2520A1
:103D200062E0FFE7DFF8A881C44562D1634BAA4691
:103D30001B1FD3F800C04CF4802CC3F800C01B68D4
:103D400003F480230593036843F0040303600068D1
:103D500000F0040005904FF440608DE82300CDE9A9
:103D6000032E69465B48FEF785FADFF860815A4901
:103D700008F1C0084046C8F800104FF0006BC0E9D9
:103D800001B5C0E90356C8F820708915C8F8145069
:103D9000C8E90651C8F82450FEF7C0F908B1FDF78C
:103DA00017FC4E4DC4F838804B48C8F838403030C6
:103DB000C5F80890C5E9000BC5E903A6C5F814A02D
:103DC000C5F818A0C5E907A72846C5F824A0FEF73E
:103DD000A5F908B1FDF7FCFB65630022052127204A
:103DE000AC63FEF7F1FC2720FEF7E0FC07B0BDE86E
:103DF000F08FDFF8EC80C445F8D1D3F800C04CF068
:103E0000200CC3F800C01B6803F02003059303686F
:103E100043F040030360006800F0400005904FF459
:103E20008440CDE900010120CDE902020820049080
:103E300069462C48FEF71EFADFF8A080224908F1F7
:103E40006008603940464FF0206AC8F80010C0E9A9
:103E500001A5C0E90356C8F81450C8F81850C8E9BD
:103E60000757C8F82450FEF759F908B1FDF7B0FB21
:103E70001A4FC4F83880C037C8F83840C7F80890DF
:103E8000C7E9035610487D611830BD61C7E9000AD3
:103E90004FF48030C7E9075038467D62FEF73EF99F
:103EA00008B1FDF795FB6763002205214720BC633D
:103EB000FEF78AFC472097E7001001404438024093
:103EC00000040240000002408864024040080020D4
:103ED00000480040000802402860024060090020BD
:103EE000001401400018024070477047FEE70000D0
:103EF00008B5072000E0642003F024FAFCF784FCF6
:103F00000028F8D1714A0092A2F11009101D09F1A0
:103F100004018346FCF790FC00F0EAF84A46A2F15F
:103F20004001A1F10C0003F0A3F8DFED690A9FED59
:103F3000690A694A002109F1300000F001FFA9F186
:103F40003402A2F10C0101F11800FCF7B5FBA9F154
:103F50004007A7F1180597ED000AA5F10C0685EDBD
:103F6000000AA5F1180886ED000A88ED000A97ED11
:103F7000010A002085ED010A86ED010A88ED010A9B
:103F800097ED020A85ED020A86ED020A88ED020A23
:103F900003F00EFA04F080F8504C10216062504893
:103FA000C161FEF785FF08B1FDF712FB4B490822FE
:103FB0003431A1F1080000F06BFF0120E0704FF0F8
:103FC000FF3A5146012003F083FD0128F9D1207802
:103FD000400708D5207820F0040020703F4859465B
:103FE0003530FCF7E1FB607840070BD5607820F0B6
:103FF00004006070354A09F104011032A2F12A0070
:10400000FCF78CFBA07840070CD5A07820F00400CA
:10401000A070324800992A30FCF7E8FC99ED040AB8
:1040200003F0FCF8294A103AA2F14001A1F10C007A
:1040300003F01EF896ED000ADFED2A2A88ED000A4B
:10404000D5ED000A9FED281AC6ED000A60EEA21A0F
:10405000DFED260A1D4840EE011A97ED000A5C3894
:1040600040EE201AC5ED001A96ED013A88ED013AAE
:1040700095ED010A86ED010A20EE222A97ED010A4C
:1040800003EE012A00EE202A85ED012A96ED023A80
:1040900088ED023A95ED020A86ED020A60EE222AC8
:1040A00097ED020A43EE012A40EE202AC5ED022ACE
:1040B00090EC030A243000F07BFC044B203B1A1FD9
:1040C000111FA1F1100002F059FF7AE738480020D3
:1040D0000080894500A08C45DC8D0008FC00002094
:1040E000F40400205AF8F63F5D896EBFD5A9183B4D
:1040F0002DE9F04100262DED048B44F6206743E0C6
:10410000254AA2F11005291D101DFCF795FB6869D1
:1041100004F0AEFD9FED218B53EC182B04F0B4FBA3
:1041200005F1780441EC190B206804F0A1FD53EC73
:10413000192B04F0B3FC04F0D3F82060A86904F054
:1041400097FD53EC182B04F09FFB41EC190B6068B2
:1041500004F08EFD53EC192B04F0A0FC04F0C0F821
:104160006060E86904F084FD53EC182B04F08CFBCC
:1041700041EC180BA06804F07BFD53EC182B04F005
:104180008DFC04F0ADF8A0603046761CB842B7DB79
:10419000BDEC048BBDE8F081384800202D431CEBBA
:1041A000E2360A3F2DE9F0470E4607460025DFF8C4
:1041B0009491BFE0785DA52872D178190446052155
:1041C00001F03AFC00286BD06078A17840EA012821
:1041D00005EB08000930B04245D8204608F1090136
:1041E00001F00CFC00285BD06079A17940EA012045
:1041F00040F20221A0F20222884260D017DCB0F522
:10420000817F3FD009DC01281AD003281FD0052860
:104210002AD0B0EB610022D12DE0B0F5827F38D0FA
:10422000A0F5807005383CD0FC2818D140E0092A60
:1042300015D2DFE802F0144B525960676E757700B3
:104240000B20804602463F48E11D8F3805E02020C4
:10425000804602463B48E11D8338FCF71BF905EB1D
:1042600008000930C5B265E00D2080460246354899
:10427000E11D6338F1E70420804602463148E11D24
:104280005638EAE70420804602462E48E11D52389F
:10429000E3E70220804602462A48E11D4E38DCE76B
:1042A00046E00120804602462648E11D4C38D4E70E
:1042B0001B20804602462348E11D4B38CDE71020E5
:1042C000804602461F48E11D3038C6E71020804670
:1042D00002461C48E11D2038BFE701208046024607
:1042E0001848E11D1038B8E70120804602461548FD
:1042F000E11D0F38B1E70120804602461148E11D5B
:104300000E38AAE70720804602460E48E11D0D3808
:10431000A3E70620804602460A48E11D801F9CE76D
:10432000042000E0062080460246E11D484694E74E
:104330006D1CEDB2B542FFF43DAFBDE8F04701F0B2
:10434000F1BA0000004B00200F4810B50D49016084
:104350000321416000214FF410228160C0E9031263
:104360004FF400124261017641768176C176017781
:104370004177FDF70EFC002803D0BDE81040FDF7A3
:1043800027B910BD00640040500400200F4810B54C
:104390000D4901600321416000214FF4102281602A
:1043A000C0E903124FF40012426101764176817632
:1043B000C17601774177FDF7ECFB002803D0BDE81B
:1043C0001040FDF705B910BD0068004078040020DA
:1043D000294808B5016841F480010160016801F4D1
:1043E00080010091016841F4001101600068002221
:1043F00000F40010009005210C20FEF7E5F90C20D8
:10440000FEF7D4F9002205210E20FEF7DDF90E207B
:10441000FEF7CCF9002205213920FEF7D5F9392025
:10442000FEF7C4F9002205213A20FEF7CDF93A2023
:10443000FEF7BCF9002205213B20FEF7C5F93B2021
:10444000FEF7B4F9002211464420FEF7BDF94420DE
:10445000FEF7ACF9002205214520FEF7B5F945200D
:10446000FEF7A4F9002205214620FEF7ADF9BDE8CC
:1044700008404620FEF79AB93038024010B596B091
:104480001C2211496846FCF74AF80021684602F0F0
:1044900065FF0E4C0C491C22A0601C3107A8FCF7DC
:1044A0003EF8002107A802F059FF074920601C22AE
:1044B00038310EA8FCF733F800210EA802F04EFFA9
:1044C000606016B010BD0000688D0008000000207C
:1044D0002DE9F04F87B014216846FCF75AF8674879
:1044E0000026016841F002010160016801F002014B
:1044F0000591016841F040010160016801F040014F
:104500000591016841F001010160016801F00101BC
:104510000591016841F008010160016801F008019E
:104520000591016841F004010160016801F0040196
:104530000591016841F080010160016801F080018E
:104540000591016841F020010160016801F020013E
:104550000591016841F0100101600068DFF82091C9
:1045600000F010000590012240214846FDF77AFF37
:10457000444F4FF4E055002229463846FDF772FFBC
:10458000DFF804A1012210215046FDF76BFFDFF890
:10459000FCB04FF48058002241465846FDF762FFB8
:1045A000012211465846FDF75DFF01244020CDE968
:1045B00000040294694648460394FDF75BFECDE98A
:1045C0000054CDE9024669463846FDF753FE0920FE
:1045D0004FF48815CDE90005694602944846FDF779
:1045E00049FE1020CDE900040227CDE902476946C3
:1045F0005046FDF73FFE3020CDE9000569460294A4
:104600002348FDF737FE6002CDE9000569460294B4
:104610002048FDF72FFECDE90084CDE9024669462A
:104620005846FDF727FECDE90247009469465846F3
:104630000194FDF71FFE062100220846FEF7C4F88C
:104640000620FEF7B3F8002205210920FEF7BCF88A
:104650000920FEF7ABF8002205210A20FEF7B4F886
:104660000A20FEF7A3F8002205211720FEF7ACF878
:104670001720FEF79BF807B0BDE8F08F30380240F6
:1046800000180240001C02400000024000040240EA
:1046900000080240001002400D4810B50B490160AF
:1046A0000C49416000214FF480428160C0E903124F
:1046B00041618161C1610162FDF7E0FE002803D024
:1046C000BDE81040FCF784BF10BD0000005C004056
:1046D000A0040020801A0600104810B50E490160A1
:1046E0004FF482714160002102228160C0E903120F
:1046F00001224261520282611022C0E90721416217
:1047000081620A21C162FEF7D3FB002803D0BDE815
:104710001040FCF75DBF10BD00300140F4040020E4
:1047200010B588B01C216846FBF733FF14481349C5
:104730000024C0E900144FF6FF71C0E90241046192
:104740008461FEF7D5FD08B1FCF742FF0C48FFF786
:1047500058F808B1FCF73CFF6020CDE90004029452
:104760000022694606480494FEF7E5FF08B1FCF70D
:104770002FFF0348FEF7B4FF08B010BD004401400E
:104780002C07002010B586B000241748009401942F
:1047900002940394049413490594016044F29F1118
:1047A000C0E901146321C0E9031444618461FEF788
:1047B0009FFD08B1FCF70CFF4FF480500090694654
:1047C0000948FEF76BFE08B1FCF702FF049404A948
:1047D00005480594FEF744FD002801D0FCF7F8FEDB
:1047E00006B010BD000001400C06002010B586B0D8
:1047F00000241648009401940294039404944FF00A
:1048000080410594016042F2D001C0E901146321A6
:10481000C0E903148461FEF76BFD08B1FCF7D8FE14
:104820004FF48050009069460848FEF737FE08B103
:10483000FCF7CEFE049404A904480594FEF710FD8D
:10484000002801D0FCF7C4FE06B010BD54060020BD
:1048500010B586B000241748009401940294039484
:10486000049413490594016044F29F11C0E90114B6
:104870006321C0E9031444618461FEF739FD08B186
:10488000FCF7A6FE4FF48050009069460948FEF7F9
:1048900005FE08B1FCF79CFE049404A905480594A4
:1048A000FEF7DEFC002801D0FCF792FE06B010BD3A
:1048B000000401409C0600201FB500211048009113
:1048C000019102910D4A0391026044F29F12C0E9E6
:1048D00001216322C0E903218161FEF709FD08B1CE
:1048E000FCF776FE4FF48050009069460448FEF7CE
:1048F000D5FD002801D0FCF76BFE1FBD0040014034
:10490000E40600200C4810B50A4901604FF4E1317B
:104910004160002181600C22C160C0E90412816104
:10492000C161FFF743F9002803D0BDE81040FCF750
:104930004FBE10BD00100140740700200C4810B598
:104940000A4901600B494160002181600C22C1606D
:10495000C0E904128161C161FFF728F9002803D082
:10496000BDE81040FCF734BE10BD00000048004018
:10497000B8070020A08601000C4810B50A49016064
:104980004FF4E1314160002181600C22C160C0E937
:1049900004128161C161FFF709F9002803D0BDE865
:1049A0001040FCF715BE10BD00140140FC070020AC
:1049B000F5EEC01AB0EE413AF0EE603AB0EE404A81
:1049C000F1EE10FA00B5024609D1B5EEC02AF1EEBB
:1049D00010FA04D1F5EEC02AF1EE10FA78D021EEEB
:1049E000A10A02EE020A02EEA20A02F055FC21EE32
:1049F000805A62EE004A92ED011AD2ED030A22EECD
:104A0000800AD2ED002A21EE202AD2ED021A22EEEF
:104A1000811A5C4802EEE12A01EEA01AF6EE001AB5
:104A200052EEA21A40EEA01A60EE020A64EEA12A2B
:104A300045EE610A40EE412A25EE010A90ED041A86
:104A400004EEC20AB5EEC01AF1EE10FA2CDD90EDBC
:104A5000041AD0ED051A21EE222A9FED4B1A42EEE0
:104A6000011AC0ED051AD0ED041A21EEA02AD0EDEE
:104A7000061A42EE011AC0ED061AD0ED041A21EE14
:104A8000802AD0ED071A42EE011AC0ED071A90ED08
:104A9000051A34EE014A90ED061A73EE813A90ED54
:104AA000071A33EE013A07E09FED381A80ED051A38
:104AB00080ED061A80ED071A90ED031A01EE224AE6
:104AC00090ED031A41EE203AD0ED030A00EE803A51
:104AD0009FED2F0AD2ED021A24EE002A63EE802AFF
:104AE00023EE001A92EC020A92ED033A60EEC23A0B
:104AF00041EEE23A43EE413A73EE804A60EE023A0A
:104B0000C2ED004A41EE813A43EE623A33EEA04AEA
:104B100060EE223A20EE010A82ED014A40EEC13AEF
:104B200000EEA20A43EE023A01EEC20A73EEA13A87
:104B300070EE030A24EEA40AC2ED023AC2ED030AA3
:104B400004EE040A03EEA30A00EEA00A02F0A4FB9E
:104B5000D2ED000A60EE800AC2ED000AD2ED010A31
:104B600060EE800AC2ED010AD2ED020A60EE800A10
:104B7000C2ED020AD2ED030A20EE800A82ED030A9A
:104B800000BD0000FC0000206F12833A000000000E
:104B90006F12033AFEE7000070B5044600202DEDC9
:104BA000028B02464FEA010534F91010002934F94E
:104BB000101000DC494209B2914200DD0A46401C57
:104BC000C0B20428F0D3AA4222DD104603F031FE21
:104BD00041EC180B284603F02CFE53EC182B03F085
:104BE00065FC03F07DFB00EE100A002034F9101084
:104BF00000EE901AF8EEE00A60EE800AFDEEE00AA0
:104C000010EE901A24F81010401CC0B20428EDD306
:104C1000BDEC028B70BDFEE7A0B1D0ED101AC0ED67
:104C2000111A90ED0F1A80ED101AC0ED060A80EDF2
:104C3000070A30EEC00A80ED0F0A017829B1012978
:104C40003BD078E09FED3D0A7047D0ED010A60EE61
:104C5000801AC0ED091AD0ED0A0A90ED022A42EE40
:104C6000000A30EE410AC0ED0A0A90ED0D2A80EDEF
:104C70000E2A90ED0C2A80ED0D2A80ED0C0A90EDA5
:104C8000031A21EE001A80ED0B1A90ED050AF4EEDE
:104C9000C00AF1EE10FA09DCB1EE400AF4EEC00AE7
:104CA000F1EE10FA02D390ED0A0A01E080ED0A0A53
:104CB00031EE800A30EE010A2BE070EE410A90EDF1
:104CC000012A20EE822A80ED092AD0ED020A60EE48
:104CD000800AC0ED0A0AD0ED0D2A72EE200AC0ED5E
:104CE0000E2AD0ED0C2AC0ED0D2AF0EE002A01EEBE
:104CF000620A30EE210A80ED0C0A90ED031A21EED3
:104D0000000A80ED0B0A30EE800AD0ED080A30EE82
:104D1000200A80ED080AD0ED040AB4EEE00AF1EEB4
:104D200010FA06DCF1EE600AB4EEE00AF1EE10FAD9
:104D300001D2C0ED080A90ED080A7047000000009B
:104D4000002828D0002A26D0017092ED001A80EDAC
:104D5000011A92ED011A80ED021A92ED021A80ED0D
:104D6000031A80ED040A9FED0C0AC0ED050A80EDE0
:104D70000E0A80ED0D0A80ED0C0A80ED080A80ED28
:104D80000B0A80ED0A0A80ED090A80ED110A80ED18
:104D9000100A80ED0F0A7047000000000648C07A34
:104DA000032805D0012803D0022803D1FCF7C2B89C
:104DB000FCF726B970470000354B00202DE9F74F6E
:104DC0008E462F490868036823F0010303602D48CD
:104DD00003681C6824F001041C600B681C68E4076D
:104DE000F7D103E01C6824F001041C6003681C6810
:104DF000E407F7D1244F254DDFF88CC04C3FDFF896
:104E00008CB00C68DFF88490B83D4FF40016A7F121
:104E1000040AABF1600B644501D93E6009E04C45E2
:104E200002D9CAF8006004E05C4501D9EE6000E0F8
:104E3000AE60D0F800804FF00066E04501D93E60DA
:104E400009E04B4502D9CAF8006004E05B4501D98E
:104E5000EE6000E0AE60C4F80CE00468009BE36024
:104E60000B685A6003685A6009680A6842F00102D8
:104E70000A600068016841F001010160BDE8FE8F31
:104E80004C050020AC05002058640240B860024088
:104E90002DE9F04F8346344803685C6844F002040F
:104EA0005C6003685C6844F001045C60006803684F
:104EB00043F0400303602D4803681C6824F001049C
:104EC0001C6003681C68E407F7D1294E294C284D63
:104ED0004C3EDFF8A0A0274FB83C4FF4001CA6F1D1
:104EE0000409AAF1600AAB4202D9C6F800C00BE07F
:104EF000BB4202D9C9F800C006E0534502D9C4F844
:104F00000CC001E0C4F808C0DFF86CC0C3F808C0EA
:104F10000368D96001684A600068016841F01001C7
:104F20000160164801680B6823F001030B600168FB
:104F30000B68DB07F7D14FF00063A94201D933605A
:104F400009E0B94202D9C9F8003004E0514501D95D
:104F5000E36000E0A360C1F808C00368C3F80CB0C8
:104F600000684260BDE8F08FF40400204C0500208A
:104F700058640240B86002400C300140AC0500208B
:104F80000148FDF717BF0000F404002010B5806B46
:104F90000021C187C186FDF70BFF10BD38B504465F
:104FA0001248134B0068B0FBF3F04FF47A73584388
:104FB00000906068B0F5827F0DD10B460092002210
:104FC0008021204600F016F870B1606D40F020009E
:104FD0006065032038BD009830B1401E0090206805
:104FE0008068C0430006F6D5002038BD1C000020B4
:104FF00000366E012DE9F8431E4691468846044668
:10500000089DFDF735FA401B351AFDF731FA0746C2
:1050100025480068C0F3CB30684338E0701C37D0B7
:10502000FDF726FAC01BA84203D215B1009860B361
:105030002CE02068416821F0E00141606068B0F533
:10504000827F0BD1A068B0F5004F02D0B0F5806F21
:1050500004D12068016821F040010160A06AB0F528
:10506000005F09D12068016821F4005101602068C7
:10507000016841F400510160012084F851000020D2
:1050800084F850000320BDE8F8830025401E0090FE
:105090002068816838EA010004D000214945BDD16B
:1050A0000020F0E70121F9E71C0000200122D102D5
:1050B0000348FDF7D7F9012002F044F9FBE70000AF
:1050C000001C024010B5502080F31188BFF34F8FB1
:1050D000BFF36F8F03F030F818B104494FF08050E0
:1050E0000860002080F3118810BD000004ED00E08E
:1050F00030B593B030216846FBF74BFA14210CA869
:10510000FBF747FA1D480025016841F08051016016
:10511000006800F0805011901948016841F4804106
:1051200001600068022400F480401190012000908A
:10513000000401908001CDE9064006200890A820D7
:10514000CDE9090404200B906846FDF77BFC08B10B
:1051500072B6FEE70CA90F2081E831004FF4A05091
:105160000F904FF48050109005210CA8FDF75EFBC6
:10517000002801D072B6FEE713B030BD40380240BF
:10518000007000400248016841F4700101607047FE
:1051900088ED00E010B50448FEF7EFF9BDE81040D7
:1051A0000248FEF7EAB900000C060020E4060020E1
:1051B0000148FEF7E2B90000540600200148FEF75E
:1051C000DCB90000800A00200148FEF7D6B90000D3
:1051D0009C0600200148FEF7D0B900009C06002084
:1051E000F0B50268254C264D264E274F274B4FF031
:1051F000804CA04209D0604507D0A84205D0B042FB
:1052000003D0B84201D0984204D122F0700E4A680F
:1052100042EA0E02A0421BD0604519D0A84217D026
:10522000B04215D0B84213D0984211D0184DA842C0
:105230000ED0184DA8420BD0174DA84208D0174DDC
:10524000A84205D0164DA84202D0164DA84203D15F
:1052500022F44075CA682A434D6922F080022A432D
:1052600002608A68C2620A688262A04201D09842E3
:1052700001D10969016301214161F0BD00000140D4
:105280000004004000080040000C00400004014001
:105290000040014000440140004801400018004027
:1052A000001C00400020004010B501F01F03012148
:1052B000046A99408C430462016A9A401143016276
:1052C00010BD10B5846842EA032224F47F440A43E7
:1052D0002243826010BD826822F070020A4342F0CD
:1052E0000701816070470000F0B5026A22F00102F8
:1052F0000262036A42688469124E24F073050C68E6
:105300002C4323F002058B682B430D4DA84201D09E
:10531000B04205D123F00807CB683B4323F00403D8
:10532000A84201D0B04205D14D6922F44072154324
:105330008A692A4342608461496841630362F0BD1F
:105340000000014000040140F0B5026A22F01002A2
:105350000262026A436884690D6824F4E64444EA00
:1053600005248D6822F0200242EA05120F4D104EEE
:10537000A84201D0B04206D1CF6822F0800242EAB2
:10538000071222F04002A84201D0B04207D14D6975
:1053900023F4406343EA85038D6943EA8503436050
:1053A0008461496881630262F0BD00000000014031
:1053B00000040140F0B5026A22F480720262026ABF
:1053C0004368C46922F4007224F073050C68124E1D
:1053D0002C438D6842EA05220E4DA84201D0B0420E
:1053E00006D1CF6822F4006242EA072222F48062EA
:1053F000A84201D0B04207D14D6923F4405343EA9B
:1054000005138D6943EA05134360C4614968C163AC
:105410000262F0BD000001400004014030B5026AA4
:1054200022F480520262046A4268C3690D6823F460
:10543000E64343EA05238D6824F4005444EA053426
:10544000084DA84202D0084DA84204D14D6922F46B
:10545000804242EA85124260C36149680164046285
:1054600030BD0000000001400004014010B5036A97
:10547000046A24F001040462846924F0F00444EA1C
:10548000021423F00A020A438461026210BD10B5BF
:10549000036A23F0100303628369046A23F47043F0
:1054A00043EA023224F0A00343EA0111826101625F
:1054B00010BD10B5806B0021C185C184FEF740FA94
:1054C00010BD01680C3151E8002F22F4907241E8C0
:1054D0000023002BF5D10168143151E8002F22F090
:1054E000010241E80023002BF5D1016B012909D10C
:1054F00001680C3151E8002F22F0100241E800232E
:10550000002BF5D1202180F83E1000210163704767
:1055100008B590F83E10222901D0022008BD82680B
:105520004FF480539A4201D1016921B1816A9A42B4
:105530001BD04AB10AE00268816A5268C2F30802CD
:105540000A80816A891C08E0026972B102685268A7
:1055500002F07F020A70816A491C8162C18D491E76
:105560000904090CC18503D019E002685268F1E70B
:105570000168CA6822F02002CA600168CA6822F481
:105580008072CA6001684A6922F001024A612021E2
:1055900080F83E10016B012903D0FEF7A5FC002026
:1055A00008BD0021016301680C3151E8002F22F091
:1055B000100241E80023002BF5D101680A68D206E9
:1055C00002D50A6849680091818DFEF7B8F9E6E7CF
:1055D00070B5044600680169E26821F44051114346
:1055E00001612169A068E2690843616911430843C8
:1055F0002168CA6849F20C639A430243CA60206872
:105600004169A26921F44071114341613149206827
:10561000884202D03049884202D1FDF7D1F901E039
:10562000FDF7BEF9E2690023192164253226B2F59F
:10563000004F626828D0A0FB0101930F9200FAF797
:1056400093FE0146B0FBF5F06FF01802504301EBFA
:10565000800006EB0010B0FBF5F000F0F002B1FBAB
:10566000F5F002EB0012B1FBF5F06FF018035843B0
:1056700001EB800006EB0010B0FBF5F000F00F002E
:1056800021681044886070BDA0FB010192185B4145
:10569000FAF76AFE0146B0FBF5F00201B1FBF5F046
:1056A0006FF01803584301EB800006EBC000B0FB1D
:1056B000F5F000F0F80002EB4002B1FBF5F05843C2
:1056C00001EB800006EBC000B0FBF5F000F0070036
:1056D000D6E7000000100140001401400148FEF729
:1056E00031B900007407002010B50448FBF748FFEB
:1056F000BDE810400148FEF725B90000B8070020BA
:105700000C4808B501680A684A680092CA6842F005
:105710001002CA6001684A6942F040024A611221DF
:1057200000910168044B806BA3F11802091DFBF77F
:10573000C7FD08BDB8070020544A00202DE9F041FC
:10574000044600885E4DC0F30A025E4F2A806078EE
:10575000A178C00840EA4110C0F30A036B80A0782A
:10576000E178800940EA81002179A2F5806240EA6F
:105770008120C0F30A06AE8020796179400840EAB2
:10578000C110C0F30A01E9806079A3F58063C0F31A
:105790000110A8726079A6F580668009E872E08839
:1057A000A8812089E88160892882207BA874607B99
:1057B000E874E089A882208A2A806B80AE80A1F5F7
:1057C0008061E980A0F5806028810020215C395447
:1057D000401C0728FADD33213A4801F009FB082074
:1057E0003A18215C401C02F8081C0F28F8DD34210F
:1057F000344801F0FDFA207C3870607C7870A07C21
:10580000B87031482F4EB0F90610B0F91220243E7E
:105810001144B0F91E20B0F92A00104408444C216C
:1058200090FBF1F07080010AF9703871274835213A
:1058300090ED010ABDEEC00A10EE100A000A787160
:1058400010EE100AB8710020F8711E4801F0D0FA6D
:10585000A07B00F00101B18000F00201F18000F0B6
:105860000401318100F00801718100F04001B18133
:1058700000F08001F18100F01001318200F0200081
:105880007082A87C3070E87C7070A88A00F4807107
:10589000B18200F40071F18200F48061318300F480
:1058A0000061718300F48051B18300F40051F183F1
:1058B00000F48041318400F400407084BDE8F08140
:1058C000354B0020C00100205C4C00201048002017
:1058D00010B50448FBF75EFEBDE810400148FEF736
:1058E00031B80000FC0700200C4808B501680A68C0
:1058F0004A680092CA6842F01002CA6001684A69A8
:1059000042F040024A61C82100910168044B806B5B
:10591000A3F1C802091DFBF7D3FC08BDFC0700205A
:105920007449002010B53249314888B09E3011F8D2
:10593000493F43704A7802708A8882800A8B82824B
:10594000CA8A42824A89C2800A890281CA884281FF
:105950000A8A8281CA89C2818A890282B1F8232097
:10596000C282D1F81F208261B1F825208283B1F86C
:105970002720C2834A88428091F8402080F8202066
:10598000D1F84120C0F8212091F83D4090F8252021
:1059900064F30302240964F3071280F8252011F848
:1059A000442C120980F8262031F8431CA0F8271057
:1059B0000221072B02D06B2B04D005E0012380F8D5
:1059C000293001E080F829108DF8182090F829007E
:1059D0008DF819001020009000200290CDE90301FD
:1059E000012306AA69460348FBF776FE08B010BDFE
:1059F0006C4A002050040020FEE7000030B50C4641
:105A0000050014D0022C12D90A48A11E028828468B
:105A1000FBF7E0FD2919C2B211F8023C9A4206D107
:105A200011F8011CB1EB102F01D1012030BD002075
:105A300030BD0000F801002030B50C4605000CD048
:105A4000022C0AD9FF22611EFBF7DAFD291911F891
:105A5000011C814201D1012030BD002030BD03B4C2
:105A600001984100009850EAC12018BF04204A0D57
:105A700018BF40F0010040F2FF72B2EB515F08BF67
:105A800040F00200012808BF052002B07047410025
:105A9000080218BF04200A0E18BF40F001004FF0A2
:105AA0007F4232EA010108BF40F00200012808BF2E
:105AB000052070470907090E002804DB00F1E020EB
:105AC00080F80014704700F00F0000F1E02080F82B
:105AD000141D704710B54FF00E402DED028BB0EE47
